:020000000C945E
:1000020037000C9400000C9400000C9400000C9437
:1000120000000C9400000C9400000C9400000C945E
:1000220000000C9400000C9400000C9400000C944E
:1000320000000C9400000C9400000C9400000C943E
:1000420000000C9400000C9400000C9400000C942E
:10005200000003008813640001002D4E414E004948
:100062004E460000010060015A000000F894EE279D
:10007200ECBBF1E0FBBFEBBFE5BF8DE0A2E0BB272D
:10008200ED938A95E9F780E094E0A0E6ED9301977D
:10009200E9F7E6E6F0E085919591009761F0A59188
:1000A200B59105901590BF01F00105900D92019751
:1000B200E1F7FB01F0CFEFE5EDBFE4E0EEBFC0E614
:1000C200D1E00C94D501BA93AA93AA81BB810D9079
:1000D2001C900E94BA02E081E03029F40E94BF0223
:1000E20011F4E0E001C0E1E0D001EC93EA81FB8190
:1000F20002801380A881B98112960E941303E081C5
:10010200E03029F40E94BF0211F4E0E001C0E1E016
:10011200D001EC93AA81BB8114960E941303A0E044
:10012200A083AA81BB8116960E941303A0E0A0833C
:1001320014C1BA93AA93A881B98114960E94130399
:10014200A081E3E0EA9FB001A881B98112960E94E2
:100152001303A081E2E0EA9FF0016E0F7F1F0E946D
:10016200BA02A081E1E0EA9FF001E60FF71FFFC1AA
:10017200BA93AA930E94BA02FF93EF93E881F9819E
:1001820002801380A481B581E0E0EC93D001EC936E
:10019200AF91BF91EC93A881B9810D901C90AA8177
:1001A200BB81E1E0F0E00E94C70202801380AA81D5
:1001B200BB81E2E0F0E00E94C70204801580AA81C0
:1001C200BB81E3E0F0E00E940D03D001EC93C5C0D7
:1001D2000E94CE02AC81BD81ACDF8F01AA85BB85B6
:1001E2000A171B0719F4198108819AC0AA85BB85D1
:1001F2000A171B0744F4A885B985E1E0EC93AE81A8
:10020200BF81E0E007C0A885B985E0E0EC93AE814C
:10021200BF81E1E0EC93A8E8B3E10E940303EA8521
:10022200FB85FA93EA93AE81BF81A2DFEA81FB816B
:10023200FA93EA93AE81BF8146DF1981088170C0CB
:10024200BA93AA93A881B981E0E0F0E0ED93FC9320
:100252008EC10E941F030E94D3028F01A6E0B0E06C
:100262000E94B4029F01EE81FF81D9011296ED93A3
:10027200FC93E885F985D9011496ED93FC93D90195
:10028200E0E0F0E0ED93FC930E94D302309729F472
:10029200AA85BB852D933C9341C0F901048015804A
:1002A2000E94D3020E94D80254F40E94D302D901C0
:1002B200ED93FC93AA85BB852D933C932FC00E949E
:1002C200D302DF010E941303309719F4AA85BB857C
:1002D20021C0D8010E941303DF010E94130330974B
:1002E200C1F0F90104801580D8010E9413030E9415
:1002F200D8025CF4D8010E941303D901ED93FC9358
:10030200F901D801ED93FC9309C0D8010D911C911C
:10031200E0CFD8010E941303208331830E9424037B
:100322002C9608950E94CE02AA81BB810E941303DB
:100332008F01002E012A19F4E0E0F0E00CC0AA813E
:10034200BB810E941303DF010E941303AA81BB81B8
:10035200ED93FC93F80119810881249608950E9477
:10036200CE02AC81BD810E9413038F01002E012AAF
:1003720019F4E0E0F0E014C0D8010E9413033097B2
:1003820019F00E94DF0209F404C0D8010D911C91FA
:10039200F3CF0E94DF0211F4F80102C0E0E0F0E0C6
:1003A2001981088126960895A097DE015E9648DF9E
:1003B200E3EFEABBE7E0E7BBE0E0E4BBE1BB09E374
:1003C20010E029E330E0EBE3F0E0E883F983FE019B
:1003D20032960E94E702FE0134960E94E702FE0175
:1003E20036960E94E70246E350E0E6E3F0E0EC8F47
:1003F200FD8FEA8FFB8FE8E3F0E0EC8BFD8BFE01D3
:100402007696A8E3B0E0A083B183FE017896A0833C
:10041200B183E3E3F0E0EE87FF87FE017096A3E38A
:10042200B0E0A083B183FE017296A083B183E0E3C2
:10043200F0E0E887F987FE013A96A0E3B0E0A083F6
:10044200B183FE013C96A083B183D901E0E0EC9335
:10045200D801EC93DA01E1E0EC93AC8DBD8DE0E0E4
:10046200EC93AA8DBB8DEC93AC89BD89E1E0EC9352
:10047200AE89BF89E0E0EC93A88DB98DEC93269705
:10048200DE015A9656DEEC83FD83FE013696FA9320
:10049200EA93DE015C9617DEDE0154964ADEEA83B9
:1004A200FB83309739F0DE011E9643DEE883F98341
:1004B2003097A1F5EC81FD81AA81BB81EA17FB0788
:1004C20099F02697E885F985EA83FB83AA85BB859F
:1004D200E885F9850E94EC02AA85BB8540DF30974A
:1004E20011F40E94F8022696EC81FD81A881B9815F
:1004F200EA17FB0799F02697EE81FF81EA83FB83D7
:10050200AA85BB85EE81FF810E94EC02A885B98590
:1005120026DF309711F40E94F8022696ECA1FDA185
:100522003097A1F0DE019496FDDE3296DF010E9443
:100532001303FA93EA931A930A933A932A93FE01C6
:10054200B096FA93EA93DE011E9642DE269697CF84
:10055200FFCFBA93AA93E991F99130971AF4E095F3
:10056200F09531960895BA93AA93E0E0F0E02296CE
:100572000895A881B9810E9413030895A881B981C1
:1005820014960E941303E081E03008950E940D0347
:10059200D001EC93E881F9810895BA93AA931A9352
:1005A2000A930895AA85BB850E9413030895349681
:1005B200DF010E9413030E161F060895F801A2819F
:1005C200B381EA81FB81EA17FB070895ABE3B0E050
:1005D200A083B1830895EA1BFB0BDF010E94AA02EC
:1005E200EC83FD83FE01BA96FA93EA930895FE0125
:1005F200BA96FA93EA93FE013296A6E00E94170396
:100602000C942A01109639F080ED97E00197F1F7EA
:10061200A8951197C9F70895EA17FB07E1E009F0D9
:10062200EE270895ED91FC9111970895BB27EA0FEB
:10063200FB1F02900A921197E1F708953A932A93C9
:100642001A930A9308953B812A811981088108959A
:00000001FF
